S012000057616973742D42656C742E7372656356
S11300000C9431000C9424040C944D040C94760448
S11300100C944E000C944E000C94E3060C94910640
S11300200C94BA060C9468060C9483050C945A0537
S11300300C944E000C944E000C944E000C944E0004
S11300400C944E000C944E000C944E000C944E00F4
S11300500C944E00A904B304BD04C704D104DB040A
S1130060E50411241FBECFE5D8E0DEBFCDBF10E00C
S1130070A0E6B0E0E0EBFFE002C005900D92A238EC
S1130080B107D9F720E0A2E8B0E001C01D92A63D77
S1130090B207E1F70E94BE010C94D6070C9400004D
S11300A081E08093D50061E084E10E94D3022FEFC8
S11300B084E39CE0215080409040E1F700C00000C0
S11300C060E084E10E94D3022FE78AE196E02150A8
S11300D080409040E1F700C0000061E084E10E94AC
S11300E0D3022FEF84E39CE0215080409040E1F75D
S11300F000C0000060E084E10E94D302089582E021
S11301008093D5000E94120761E084E10E94D3022B
S11301102FEF84E39CE0215080409040E1F700C041
S1130120000060E084E10E94D30285E00E94F904AB
S113013008951092D5000E941207809160008111E9
S113014011C061E084E10E94D3022FEF8EE994E2B2
S1130150215080409040E1F700C0000060E084E15D
S11301600E94D3021092600082E00E94F904089574
S11301708AE10E9453038823D9F38091D500811129
S113018003C00E947F000895823019F40E94500039
S11301900895813011F40E949900089588E10E9425
S11301A07C018451813520F481E08093850002C074
S11301B01092850089E10E947C018451813520F4EC
S11301C081E08093840002C0109284008BE10E943D
S11301D07C018451813520F481E08093830002C046
S11301E0109283008CE10E947C018451813520F4BB
S11301F081E0809382000895109282000895809196
S11302008500813029F461E080E10E94D30204C0BA
S113021060E080E10E94D30280918400813029F45F
S113022061E081E10E94D30204C060E081E10E94A8
S1130230D30280918300813029F461E085E10E943A
S1130240D30204C060E085E10E94D3028091820061
S1130250813029F461E083E10E94D302089560E0D3
S113026083E10E94D302089580918C0090918D00C7
S1130270019690938D0080938C00089580918A005C
S113028090918B00892B79F486B597B5909389006A
S11302908093880081E090E090938B0080938A00A3
S11302A00E944606089580918A0090918B000197E0
S11302B099F486B597B5909387008093860082E081
S11302C090E090938B0080938A0080E00E94460621
S11302D00E945A060E945606089520E040E062E01B
S11302E080E00E94AC0584E391E00E945E068EE308
S11302F091E00E9463060895CF93DF93C82F109274
S11303008D0010928C0010928B0010928A0061E094
S11303100E94D3028AE18A95F1F700C060E08C2F35
S11303200E94D30280E00E9446060E9452068091F9
S11303308A0090918B000297D0F32091860030912F
S113034087008091880090918900281B390B809147
S11303508C0090918D00281B390BAFE9B6E40E9404
S1130360C707EC01D295C295CF70CD27DF70CD279A
S11303700E9456068C2FDF91CF91089578940E94A5
S11303808D030E946D010E94160760E080E00E94C8
S1130390AF0368EB70E080E00E940F0480E00E94ED
S11303A09D0340E064E18EEC90E00E94290740E068
S11303B064E18FEF90E00E94290740E06AE085E263
S11303C097E00E9429070E9499000E9422070E9438
S11303D04C07FDCF982F969596959695877061302A
S11303E009F441C020F0623009F48DC008959130C1
S11303F099F028F09230E9F0933041F108954AB32E
S113040021E030E0B90102C0660F771F8A95E2F758
S1130410CB01842B8ABB089547B321E030E0B901B6
S113042002C0660F771F8A95E2F7CB01842B87BB46
S1130430089544B321E030E0B90102C0660F771F8C
S11304408A95E2F7CB01842B84BB089541B321E064
S113045030E0B90102C0660F771F8A95E2F7CB013D
S1130460842B81BB08959130C1F028F0923039F18A
S11304709330B9F108954AB321E030E0B90102C0E4
S1130480660F771F8A95E2F7CB018095942F982306
S11304909ABB9BB389238BBB089547B321E030E01B
S11304A0B90102C0660F771F8A95E2F7CB018095E8
S11304B0942F982397BB98B3892388BB089544B39A
S11304C021E030E0B90102C0660F771F8A95E2F798
S11304D0CB018095942F982394BB95B3892385BB36
S11304E0089544B321E030E0B90102C0660F771FDC
S11304F08A95E2F7CB018095942F982394BB92B30D
S1130500892382BB08959130C1F028F0923039F1EB
S11305109330B9F108954AB321E030E0B90102C043
S1130520660F771F8A95E2F7CB01962F9095942357
S11305309ABB9BB3892B8BBB089547B321E030E072
S1130540B90102C0660F771F8A95E2F7CB01962F97
S11305509095942397BB98B3892B88BB089544B393
S113056021E030E0B90102C0660F771F8A95E2F7F7
S1130570CB01962F9095942394BB95B3892B85BB7F
S1130580089544B321E030E0B90102C0660F771F3B
S11305908A95E2F7CB01962F9095942394BB92B35E
S11305A0892B82BB0895982F96959695969587707A
S11305B06130B9F5913091F028F09230D9F0933050
S11305C029F12FC04BB321E030E0082E02C0220FE6
S11305D0331F0A94E2F7242B2BBB23C048B321E03A
S11305E030E0082E02C0220F331F0A94E2F7242BB6
S11305F028BB17C045B321E030E0082E02C0220F0B
S1130600331F0A94E2F7242B25BB0BC042B321E02D
S113061030E0082E02C0220F331F0A94E2F7242B85
S113062022BB61113FC09130A1F028F09230F9F063
S1130630933059F108954BB321E030E0B90102C081
S1130640660F771F8A95E2F7CB01809584238BBBD5
S1130650089548B321E030E0B90102C0660F771F66
S11306608A95E2F7CB018095842388BB089545B32E
S113067021E030E0B90102C0660F771F8A95E2F7E6
S1130680CB018095842385BB089542B321E030E0FB
S1130690B90102C0660F771F8A95E2F7CB018095F6
S11306A0842382BB0895282F269526952695877046
S11306B0213089F028F02230C9F0233011F12BC009
S11306C029B330E0A90102C0559547958A95E2F710
S11306D0942F917020C026B330E0A90102C0559533
S11306E047958A95E2F7942F917015C023B330E0B3
S11306F0A90102C0559547958A95E2F7942F917008
S11307000AC020B330E0A90102C0559547958A95E7
S1130710E2F7942F9170892F0895CF93C0E009C018
S1130720EC2FF0E0EF59FF4F60818C2F0E94EA011B
S1130730CF5FC032A8F3CF910895813041F018F013
S1130740823049F008958BB780648BBF08958BB7CE
S113075080688BBF08958BB780628BBF089581300A
S113076049F120F0823009F449C00895613069F0FC
S113077028F0623089F06330B1F0089585B78E7F38
S113078085BF85B78D7F85BF089585B7816085BF97
S113079085B78D7F85BF089585B78E7F85BF85B763
S11307A0826085BF089585B7816085BF85B7826003
S11307B085BF0895613069F028F0623089F06330B4
S11307C0B1F0089585B78B7F85BF85B7877F85BFD7
S11307D0089585B7846085BF85B7877F85BF0895F1
S11307E085B78B7F85BF85B7886085BF089585B73A
S11307F0846085BF85B7886085BF0895623019F02D
S1130800633029F008C084B78F7B84BF089584B710
S1130810806484BF089584B78F7B84BF089581303A
S113082049F018F0823059F0089570939300609362
S113083092000895709391006093900008957093CE
S11308408F0060938E0008951F920F920FB60F923F
S113085011242F933F934F935F936F937F938F93C1
S11308609F93AF93BF93EF93FF93E0919200F09126
S11308709300309709F00995FF91EF91BF91AF91E3
S11308809F918F917F916F915F914F913F912F91A4
S11308900F900FBE0F901F9018951F920F920FB6D6
S11308A00F9211242F933F934F935F936F937F93F2
S11308B08F939F93AF93BF93EF93FF93E091900037
S11308C0F0919100309709F00995FF91EF91BF9154
S11308D0AF919F918F917F916F915F914F913F91D4
S11308E02F910F900FBE0F901F9018951F920F928B
S11308F00FB60F9211242F933F934F935F936F93EF
S11309007F938F939F93AF93BF93EF93FF93E09164
S11309108E00F0918F00309709F00995FF91EF91C7
S1130920BF91AF919F918F917F916F915F914F9103
S11309303F912F910F900FBE0F901F90189590E04C
S11309408730910508F04AC0FC01E65DFF4F0C9426
S1130950C10785B78F7E85BF85B78F7D85BF85B776
S11309608F7B85BF089585B7806185BF85B78F7DEF
S113097085BF85B78F7B85BF089585B78F7E85BF7B
S113098085B7806285BF85B78F7B85BF089585B79E
S1130990806185BF85B7806285BF85B78F7B85BF42
S11309A0089585B78F7E85BF85B78F7D85BF85B751
S11309B0806485BF089585B78F7E85BF85B78062C3
S11309C085BF85B7806485BF089585B7806185BF7D
S11309D085B7806285BF85B7806485BF089585B774
S11309E0806885BF089585B78F7785BF08958895FA
S11309F008950E949F04F8940E94EF0478940E9442
S1130A00F7040E94F3040895813069F028F08230DD
S1130A1089F08330B1F01BC083B78F7B83BF83B76A
S1130A20877F83BF14C083B7806483BF83B7877F06
S1130A3083BF0DC083B78F7B83BF83B7886083BFB9
S1130A4006C083B7806483BF83B7886083BF83B7DE
S1130A50887F83BF83B7682B63BF413069F028F078
S1130A60423089F04330B1F0089583B78F7E83BF5D
S1130A7083B78F7D83BF089583B7806183BF83B7B6
S1130A808F7D83BF089583B78F7E83BF83B78062D2
S1130A9083BF089583B7806183BF83B7806283BFB8
S1130AA0089589B7816089BF089590939D008093CC
S1130AB09C0008951F920F920FB60F9211242F934A
S1130AC03F934F935F936F937F938F939F93AF93D2
S1130AD0BF93EF93FF93E0919C00F0919D003097BA
S1130AE009F00995FF91EF91BF91AF919F918F917B
S1130AF07F916F915F914F913F912F910F900FBE16
S1130B000F901F9018951F920F920FB60F921124F9
S1130B102F933F934F935F936F937F938F939F9301
S1130B20AF93BF93EF93FF93E0919E00F0919F00EA
S1130B30309709F00995FF91EF91BF91AF919F9183
S1130B408F917F916F915F914F913F912F910F9072
S1130B500FBE0F901F901895823029F128F4882336
S1130B6041F0813099F045C0833051F18430A9F1CE
S1130B7040C08FB58E7F8FBD8FB58D7F8FBD8EB5F5
S1130B80877F8EBD8EB58F7E8EBD33C08FB58E7F31
S1130B908FBD8FB58D7F8FBD8EB588608EBD8EB5B0
S1130BA080618EBD26C08FB58E7F8FBD8FB58D7F42
S1130BB08FBD8EB588608EBD8EB58F7E8EBD19C0FB
S1130BC08FB58E7F8FBD8FB582608FBD8EB58860E7
S1130BD08EBD8EB580618EBD0CC08FB581608FBD1A
S1130BE08FB582608FBD8EB588608EBD8EB58061F5
S1130BF08EBD413069F028F0423089F04330B1F0C5
S1130C001BC08FB58F7B8FBD8FB58F778FBD14C001
S1130C108FB580648FBD8FB58F778FBD0DC08FB5B5
S1130C208F7B8FBD8FB580688FBD06C08FB5806404
S1130C308FBD8FB580688FBD213069F028F02230D8
S1130C4089F02330B1F01BC08FB58F7E8FBD8FB577
S1130C508F7D8FBD14C08FB580618FBD8FB58F7DA3
S1130C608FBD0DC08FB58F7E8FBD8FB580628FBD58
S1130C7006C08FB580618FBD8FB580628FBD8EB584
S1130C80887F8EBD8EB5682B6EBD0895811104C01A
S1130C908EB580648EBD0895813019F48EB58F7B36
S1130CA08EBD089589B7806289BF089589B78F7D05
S1130CB089BF089589B78B7F89BF089590939B005E
S1130CC080939A00089590939500809394000895DA
S1130CD01F920F920FB60F9211242F933F934F93AD
S1130CE05F936F937F938F939F93AF93BF93EF9390
S1130CF0FF93E0919A00F0919B00309709F00995D9
S1130D00FF91EF91BF91AF919F918F917F916F91DF
S1130D105F914F913F912F910F900FBE0F901F90B5
S1130D2018951F920F920FB60F9211242F933F9391
S1130D304F935F936F937F938F939F93AF93BF93DF
S1130D40EF93FF93E0919800F0919900309709F0A8
S1130D500995FF91EF91BF91AF919F918F917F91F1
S1130D606F915F914F913F912F910F900FBE0F9014
S1130D701F9018951F920F920FB60F9211242F9364
S1130D803F934F935F936F937F938F939F93AF930F
S1130D90BF93EF93FF93E0919600F0919700309703
S1130DA009F00995FF91EF91BF91AF919F918F91B8
S1130DB07F916F915F914F913F912F910F900FBE53
S1130DC00F901F9018951F920F920FB60F92112437
S1130DD02F933F934F935F936F937F938F939F933F
S1130DE0AF93BF93EF93FF93E0919400F09195003C
S1130DF0309709F00995FF91EF91BF91AF919F91C1
S1130E008F917F916F915F914F913F912F910F90AF
S1130E100FBE0F901F901895886091B5986191BD91
S1130E2081BD089588E181BD11BC089540E062E070
S1130E3080E00E9404058CE982BF8EEA97E00E945C
S1130E40550508950E945105089580E00E94F90413
S1130E5008959C019CEF960F9131D0F48091A100EC
S1130E608B30C0F4E82FF0E0DF01AA0FBB1FAA0FFC
S1130E70BB1FEA0FFB1FEE55FF4F318320834483D2
S1130E80628391E093838F5F8093A10080E0089553
S1130E9082E0089583E008950F931F93CF93C0E0F9
S1130EA016C08C2F90E0FC01EE0FFF1FEE0FFF1F0A
S1130EB0E80FF91FEE55FF4F2481213039F48F01DB
S1130EC00190F081E02D0995F8011482CF5F8091A3
S1130ED0A100C81730F3CF911F910F9108950E947C
S1130EE0120720E036C0822F90E0FC01EE0FFF1FB6
S1130EF0EE0FFF1FE80FF91FEE55FF4F348132301C
S1130F0039F1FC01EE0FFF1FEE0FFF1FE80FF91F71
S1130F10EE55FF4F33814281341770F0FC01EE0F20
S1130F20FF1FEE0FFF1F8E0F9F1FFC01EE55FF4F9B
S1130F3081E0838384830CC0FC01EE0FFF1FEE0F5E
S1130F40FF1F8E0F9F1FFC01EE55FF4F3F5F338342
S1130F502F5F8091A100281730F2089582E00E944B
S1130F600C078CE982BF8091A0008F5F8093A00062
S1130F708091A000823320F01092A0000E946F079D
S1130F800895EE0FFF1F0590F491E02D0994A29FA0
S1130F90B001B39FC001A39F700D811D1124911D49
S1130FA0B29F700D811D1124911D0895F894FFCFF7
S1130FB0010101010101010101010101010101011D
S1130FC00100000000000001010000020000000117
S1050FD001001A
S9030000FC
