S012000057616973742D42656C742E7372656356
S11300000C9431000C9412040C943B040C9464047E
S11300100C944E000C944E000C946B060C94190630
S11300200C9442060C94F0050C9438050C940F05BE
S11300300C944E000C942A070C944E000C94010767
S11300400C944E000C944E000C944E000C944E00F4
S11300500C944E00970499049E04A004A804AD04D3
S1130060AF0411241FBECFE5D8E0DEBFCDBF10E042
S1130070A0E6B0E0E6E2F0E102C005900D92A238FD
S1130080B107D9F720E0A2E8B0E001C01D92AA3D73
S1130090B207E1F70E94DE010C9411080C940000F1
S11300A081E08093D90061E08DE10E94F6022FEF98
S11300B084E39CE0215080409040E1F700C00000C0
S11300C060E08DE10E94F6022FE78AE196E021507C
S11300D080409040E1F700C0000061E08DE10E94A3
S11300E0F6022FEF84E39CE0215080409040E1F73A
S11300F000C0000060E08DE10E94F60261E084E14E
S11301000C94F60282E08093D90061E08DE10E94B4
S1130110F6022FEF84E39CE0215080409040E1F709
S113012000C0000060E08DE10E94F60260E084E11E
S11301300E94F60285E00C94C2041092D9008091CA
S11301406000811111C061E08DE10E94F6022FEF81
S11301508EE994E2215080409040E1F700C0000015
S113016060E08DE10E94F6021092600060E084E19C
S11301700E94F60282E00C94C2040E9459078AE1AC
S11301800E9477038823D9F38091D900811102C09A
S11301900C948200823011F40C945000813011F4DC
S11301A00C949D00089588E00E949A018A50893237
S11301B020F481E08093850002C01092850089E0DC
S11301C00E949A018A50893220F481E0809384004D
S11301D002C0109284008AE00E949A018A508932F7
S11301E020F481E08093830002C0109283008BE0AE
S11301F00E949A018A50893220F481E0809382001F
S1130200089510928200089580918500813031F420
S113021061E080E10E94F60281E305C060E080E1D4
S11302200E94F60282E30E94FD06809184008130E0
S113023031F461E081E10E94F60283E30BC0909106
S11302408300911109C0811107C060E081E10E941F
S1130250F60284E30E94FD0680918300813031F42C
S113026061E081E10E94F60285E30BC081110BC0BD
S113027080918400811107C060E081E10E94F60250
S113028086E30E94FD0680918200813031F461E0B2
S113029082E10E94F60287E305C060E082E10E94E9
S11302A0F60288E30C94FD0680918C0090918D00F9
S11302B0019690938D0080938C00089580918A001C
S11302C090918B00892B71F486B597B59093890032
S11302D08093880081E090E090938B0080938A0063
S11302E00C94CF0580918A0090918B00019799F42A
S11302F086B597B5909387008093860082E090E05E
S113030090938B0080938A0080E00E94CF050E9426
S1130310E2050C94DE05089520E040E062E080E010
S11303200E94610584E591E00E94E6058EE591E076
S11303300C94EB05EF92FF920F931F93CF93DF93EF
S1130340C82F10928D0010928C0010928B00109286
S11303508A0061E00E94F6028AE18A95F1F700C002
S113036060E08C2F0E94F60280E00E94CF050E947C
S1130370DA0580918A0090918B000297D0F3C091A6
S11303808600D0918700E0908800F0908900009169
S11303908C0010918D000E94DE05CE018E199F09FC
S11303A0801B910B6AE370E00E94D507862FDF91D2
S11303B0CF911F910F91FF90EF90089578940E9430
S11303C094030E948C0120E042E065E080E895E21D
S11303D00E9494060E945D0760E080E00E94B703DB
S11303E06DEB70E080E00E94FD0380E00E94A703B3
S11303F040E064E183ED90E00E946D0740E064E139
S113040084E091E00E946D0740E06AE08AE697E0AC
S11304100E946D070E949D000E9468070E948B073E
S1130420FDCF982F9695969596958770613009F42F
S113043041C020F0623009F489C00895913099F0E8
S113044028F09230E9F0933041F108954AB321E065
S113045030E0B90102C0660F771F8A95E2F7CB013D
S1130460842B8ABB089547B321E030E0B90102C070
S1130470660F771F8A95E2F7CB01842B87BB08951B
S113048044B321E030E0B90102C0660F771F8A95BA
S1130490E2F7CB01842B84BB089541B321E030E023
S11304A0B90102C0660F771F8A95E2F7CB01842B4E
S11304B081BB08959130B9F028F0923029F193303E
S11304C0A1F108954AB321E030E0B90102C0660FFA
S11304D0771F8A95E2F7CB018095942F98239ABBD6
S11304E09BB389234BC047B321E030E0B90102C07C
S11304F0660F771F8A95E2F7CB018095942F982396
S113050097BB98B389234CC044B321E030E0B901D0
S113051002C0660F771F8A95E2F7CB018095942F6E
S1130520982394BB95B389234DC041B321E030E0B7
S1130530B90102C0660F771F8A95E2F7CB01809557
S1130540942F982391BB92B389234EC09130C1F06C
S113055028F0923039F19330B9F108954AB321E08B
S113056030E0B90102C0660F771F8A95E2F7CB012C
S1130570962F909594239ABB9BB3892B8BBB08959C
S113058047B321E030E0B90102C0660F771F8A95B6
S1130590E2F7CB01962F9095942397BB98B3892BC0
S11305A088BB089544B321E030E0B90102C0660F6E
S11305B0771F8A95E2F7CB01962F9095942394BBED
S11305C095B3892B85BB089541B321E030E0B9018F
S11305D002C0660F771F8A95E2F7CB01962F90959C
S11305E0942391BB92B3892B82BB0895982F96953F
S11305F09695969587706130C1F5913091F028F009
S11306009230D9F0933029F108954BB321E030E0D2
S1130610B90102C0660F771F8A95E2F7CB01842BDC
S11306203AC048B321E030E0B90102C0660F771F39
S11306308A95E2F7CB01842B3CC045B321E030E03E
S1130640B90102C0660F771F8A95E2F7CB01842BAC
S11306503EC042B321E030E0B90102C0660F771F0B
S11306608A95E2F7CB01842B40C061113FC09130E1
S1130670A1F028F09230F9F0933059F108954BB37A
S113068021E030E0B90102C0660F771F8A95E2F7D6
S1130690CB01809584238BBB089548B321E030E0DF
S11306A0B90102C0660F771F8A95E2F7CB018095E6
S11306B0842388BB089545B321E030E0B90102C02A
S11306C0660F771F8A95E2F7CB018095842385BB5B
S11306D0089542B321E030E0B90102C0660F771FEC
S11306E08A95E2F7CB018095842382BB0895282F55
S11306F02770869586958695813049F030F0823052
S113070041F0833079F480B305C089B303C086B364
S113071001C083B390E002C0959587952A95E2F7CE
S1130720982F9170892F08950F931F93CF9301E60B
S113073010E0C0E0F80161918F018C2F0E9411023A
S1130740CF5FC032B9F7CF911F910F9108958130D7
S113075039F018F0823039F008958BB7806405C001
S11307608BB7806802C08BB780628BBF08958130DD
S1130770F1F018F08230B1F10895613049F028F0B9
S1130780623061F0633069F0089585B78E7F02C0EE
S113079085B7816085BF85B78D7F22C085B78E7F81
S11307A002C085B7816085BF85B7826019C061309A
S11307B049F028F0623061F0633069F0089585B73C
S11307C08B7F02C085B7846085BF85B7877F08C0EB
S11307D085B78B7F02C085B7846085BF85B7886085
S11307E085BF0895623029F0633019F484B78064BA
S11307F002C084B78F7B84BF0895813049F018F01C
S1130800823059F008957093930060939200089594
S11308107093910060939000089570938F0060939B
S11308208E0008951F920F920FB60F9211242F93EA
S11308303F934F935F936F937F938F939F93AF9364
S1130840BF93EF93FF93E0919200F0919300309760
S113085009F00995FF91EF91BF91AF919F918F910D
S11308607F916F915F914F913F912F910F900FBEA8
S11308700F901F9018951F920F920FB60F9211248C
S11308802F933F934F935F936F937F938F939F9394
S1130890AF93BF93EF93FF93E0919000F091910099
S11308A0309709F00995FF91EF91BF91AF919F9116
S11308B08F917F916F915F914F913F912F910F9005
S11308C00FBE0F901F9018951F920F920FB60F92A4
S11308D011242F933F934F935F936F937F938F9341
S11308E09F93AF93BF93EF93FF93E0918E00F091AA
S11308F08F00309709F00995FF91EF91BF91AF9167
S11309009F918F917F916F915F914F913F912F9123
S11309100F900FBE0F901F90189590E087309105AF
S113092030F5FC01E65DFF4F85B70C940B088F7E14
S113093001C0806185BF85B78F7D06C08F7E01C0F1
S1130940806185BF85B7806285BF85B78F7B0EC008
S11309508F7E85BF85B78F7D06C08F7E01C0806185
S113096085BF85B7806285BF85B7806485BF0895DC
S113097085B7806885BF089585B78F7785BF08954B
S1130980889508950E948D04F8940E94B804789480
S11309900E94C0040C94BC04813059F038F08230B9
S11309A071F0833091F483B780640BC083B78F7B7D
S11309B002C083B7806483BF83B7877F05C083B7D2
S11309C08F7B83BF83B7886083BF83B7887F83BFF0
S11309D083B7682B63BF413049F028F0423061F09F
S11309E0433069F0089583B78F7E02C083B7806176
S11309F083BF83B78F7D08C083B78F7E02C083B760
S1130A00806183BF83B7806283BF089589B78160A3
S1130A1089BF089590939D0080939C0008951F9230
S1130A200F920FB60F9211242F933F934F935F931E
S1130A306F937F938F939F93AF93BF93EF93FF93A2
S1130A40E0919C00F0919D00309709F00995FF9189
S1130A50EF91BF91AF919F918F917F916F915F9132
S1130A604F913F912F910F900FBE0F901F901895AB
S1130A701F920F920FB60F9211242F933F934F930F
S1130A805F936F937F938F939F93AF93BF93EF93F2
S1130A90FF93E0919E00F0919F00309709F0099533
S1130AA0FF91EF91BF91AF919F918F917F916F9142
S1130AB05F914F913F912F910F900FBE0F901F9018
S1130AC018958230D9F050F4882379F0813071F58B
S1130AD08FB58E7F8FBD8FB58D7F21C08330D1F0D0
S1130AE0843021F58FB5816017C08FB58E7F8FBD9F
S1130AF08FB58D7F8FBD8EB5877F08C08FB58E7FF4
S1130B008FBD8FB58D7F8FBD8EB588608EBD8EB540
S1130B108F7E0BC08FB58E7F8FBD8FB582608FBDEA
S1130B208EB588608EBD8EB580618EBD413059F022
S1130B3038F0423071F0433091F48FB580640BC0CB
S1130B408FB58F7B02C08FB580648FBD8FB58F77D3
S1130B5005C08FB58F7B8FBD8FB580688FBD213069
S1130B6059F038F0223071F0233091F48FB5806160
S1130B700BC08FB58F7E02C08FB580618FBD8FB5DE
S1130B808F7D05C08FB58F7E8FBD8FB580628FBD81
S1130B908EB5887F8EBD8EB5682B6EBD089581118C
S1130BA003C08EB5806404C0813019F48EB58F7B88
S1130BB08EBD089589B7806289BF089589B78F7DF6
S1130BC089BF089589B78B7F89BF089590939B004F
S1130BD080939A00089590939500809394000895CB
S1130BE01F920F920FB60F9211242F933F934F939E
S1130BF05F936F937F938F939F93AF93BF93EF9381
S1130C00FF93E0919A00F0919B00309709F00995C9
S1130C10FF91EF91BF91AF919F918F917F916F91D0
S1130C205F914F913F912F910F900FBE0F901F90A6
S1130C3018951F920F920FB60F9211242F933F9382
S1130C404F935F936F937F938F939F93AF93BF93D0
S1130C50EF93FF93E0919800F0919900309709F099
S1130C600995FF91EF91BF91AF919F918F917F91E2
S1130C706F915F914F913F912F910F900FBE0F9005
S1130C801F9018951F920F920FB60F9211242F9355
S1130C903F934F935F936F937F938F939F93AF9300
S1130CA0BF93EF93FF93E0919600F09197003097F4
S1130CB009F00995FF91EF91BF91AF919F918F91A9
S1130CC07F916F915F914F913F912F910F900FBE44
S1130CD00F901F9018951F920F920FB60F92112428
S1130CE02F933F934F935F936F937F938F939F9330
S1130CF0AF93BF93EF93FF93E0919400F09195002D
S1130D00309709F00995FF91EF91BF91AF919F91B1
S1130D108F917F916F915F914F913F912F910F90A0
S1130D200FBE0F901F9018951F93CF93DF93C62F7C
S1130D30D42F122FA0E0B0E09C01AD0184E0220F7B
S1130D40331F441F551F8A95D1F760E072E18AE78B
S1130D5090E00E94E9072150310929B930BD80B5DE
S1130D60806880BDC430E1F038F4C23089F0C3300B
S1130D7001F580B582600EC0C530A9F0C630C9F453
S1130D8080B5826080BD80B5846080BD529A11C0F8
S1130D9080B58D7F80BD80B58B7F80BD529809C0A2
S1130DA080B58D7F02C080B5826080BD80B58460CF
S1130DB0F4CFD13061F040F0D23079F480B58F7E39
S1130DC080BD80B58F7D08C080B58F7E02C080B5A0
S1130DD0806180BD80B5806280BD112329F011300F
S1130DE031F480B5886002C080B5877F80BD539A96
S1130DF0549ADF91CF911F9108955D9BFECF8CB9DA
S1130E0008951F920F920FB60F9211242F933F93C0
S1130E104F935F936F937F938F939F93AF93BF93FE
S1130E20EF93FF93E091A200F091A300309709F0B3
S1130E300995FF91EF91BF91AF919F918F917F9110
S1130E406F915F914F913F912F910F900FBE0F9033
S1130E501F9018951F920F920FB60F9211242F9383
S1130E603F934F935F936F937F938F939F93AF932E
S1130E70BF93EF93FF93E091A000F091A10030970E
S1130E8009F00995FF91EF91BF91AF919F918F91D7
S1130E907F916F915F914F913F912F910F900FBE72
S1130EA00F901F901895886091B5986191BD81BD90
S1130EB0089588E181BD11BC089540E062E080E0BE
S1130EC00E94CC048CE982BF82EC97E00C940A0562
S1130ED00C94060580E00C94C2049C018CEF860FF0
S1130EE08131A8F49091A5009B3098F485E0989FF7
S1130EF0F0011124EA55FF4F318320834483628338
S1130F0081E083839F5F9093A50080E0089582E051
S1130F10089583E008950F931F93CF93DF9310E018
S1130F2005E08091A500181770F4019FE0011124D9
S1130F30CA55DF4F8C81813021F4E881F98109950C
S1130F401C821F5FEECFDF91CF911F910F91089507
S1130F500E9459073091A500E6EAF0E090E021E014
S1130F60931779F08481823049F083814281841718
S1130F7018F02383248302C08F5F83839F5F359699
S1130F80EFCF089582E00E9453078CE982BF8091DD
S1130F90A4008F5F8093A4008091A400823320F08A
S1130FA01092A4000C94A8070895AA1BBB1B51E13E
S1130FB007C0AA1FBB1FA617B70710F0A61BB70BC5
S1130FC0881F991F5A95A9F780959095BC01CD016A
S1130FD00895A1E21A2EAA1BBB1BFD010DC0AA1F76
S1130FE0BB1FEE1FFF1FA217B307E407F50720F08E
S1130FF0A21BB30BE40BF50B661F771F881F991F09
S11310001A9469F760957095809590959B01AC0151
S1131010BD01CF010895EE0FFF1F0590F491E02D5F
S10910200994F894FFCFCF
S113102601010101010101010100000000010101AA
S1131036010000000000000101010102010100019C
S10510460100A3
S9030000FC
